{
  "contractName": "DemystifyToken",
  "abi": [
    {
      "inputs": [],
      "payable": false,
      "stateMutability": "nonpayable",
      "type": "constructor"
    },
    {
      "constant": true,
      "inputs": [],
      "name": "totalSupply",
      "outputs": [
        {
          "internalType": "uint256",
          "name": "",
          "type": "uint256"
        }
      ],
      "payable": false,
      "stateMutability": "view",
      "type": "function"
    }
  ],
  "bytecode": "0x6080604052348015600f57600080fd5b506201e14d6000819055506084806100286000396000f3fe6080604052348015600f57600080fd5b506004361060285760003560e01c806318160ddd14602d575b600080fd5b60336049565b6040518082815260200191505060405180910390f35b6000548156fea265627a7a72315820c54afc63ed9faa10f5254ae4377199ffeb8b8caf552b748569ed1f612aa403fd64736f6c634300050c0032",
  "source": "pragma solidity ^0.5.12;\n\n\ncontract DemystifyToken {\n\n    uint256 public totalSupply;\n    constructor () public  {\n        totalSupply=123213;\n    }\n\n}",
  "sourcePath": "/Users/aa/IdeaProjects/DemystifyToken/contracts/DemystifyToken.sol",
  "compiler": {
    "name": "solc",
    "version": "0.5.12+commit.7709ece9.Emscripten.clang"
  },
  "schemaVersion": "3.0.20",
  "updatedAt": "2020-01-06T13:54:47.892Z",
  "networkType": "ethereum",
  "devdoc": {
    "methods": {}
  },
  "userdoc": {
    "methods": {}
  }
}