{
  "contractName": "DemystifyTokenSale",
  "abi": [
    {
      "inputs": [
        {
          "internalType": "contract DemystifyToken",
          "name": "_tokenContract",
          "type": "address"
        },
        {
          "internalType": "uint256",
          "name": "_tokenPrice",
          "type": "uint256"
        }
      ],
      "payable": false,
      "stateMutability": "nonpayable",
      "type": "constructor"
    },
    {
      "anonymous": false,
      "inputs": [
        {
          "indexed": false,
          "internalType": "address",
          "name": "_buyer",
          "type": "address"
        },
        {
          "indexed": false,
          "internalType": "uint256",
          "name": "_amount",
          "type": "uint256"
        }
      ],
      "name": "Sell",
      "type": "event"
    },
    {
      "payable": true,
      "stateMutability": "payable",
      "type": "fallback"
    },
    {
      "constant": true,
      "inputs": [],
      "name": "tokenContract",
      "outputs": [
        {
          "internalType": "contract DemystifyToken",
          "name": "",
          "type": "address"
        }
      ],
      "payable": false,
      "stateMutability": "view",
      "type": "function"
    },
    {
      "constant": true,
      "inputs": [],
      "name": "tokenPrice",
      "outputs": [
        {
          "internalType": "uint256",
          "name": "",
          "type": "uint256"
        }
      ],
      "payable": false,
      "stateMutability": "view",
      "type": "function"
    },
    {
      "constant": true,
      "inputs": [],
      "name": "tokensSold",
      "outputs": [
        {
          "internalType": "uint256",
          "name": "",
          "type": "uint256"
        }
      ],
      "payable": false,
      "stateMutability": "view",
      "type": "function"
    },
    {
      "constant": false,
      "inputs": [],
      "name": "buyTokensWithoutValue",
      "outputs": [],
      "payable": true,
      "stateMutability": "payable",
      "type": "function"
    },
    {
      "constant": false,
      "inputs": [
        {
          "internalType": "uint256",
          "name": "_numberOfTokens",
          "type": "uint256"
        }
      ],
      "name": "buyTokens",
      "outputs": [],
      "payable": true,
      "stateMutability": "payable",
      "type": "function"
    },
    {
      "constant": false,
      "inputs": [],
      "name": "endSale",
      "outputs": [],
      "payable": false,
      "stateMutability": "nonpayable",
      "type": "function"
    }
  ],
  "bytecode": "0x608060405234801561001057600080fd5b50604051610c19380380610c198339818101604052604081101561003357600080fd5b810190808051906020019092919080519060200190929190505050336000806101000a81548173ffffffffffffffffffffffffffffffffffffffff021916908373ffffffffffffffffffffffffffffffffffffffff16021790555081600160006101000a81548173ffffffffffffffffffffffffffffffffffffffff021916908373ffffffffffffffffffffffffffffffffffffffff160217905550806002819055505050610b32806100e76000396000f3fe6080604052600436106100555760003560e01c80633610724e1461005f578063380d831b1461008d578063518ab2a8146100a4578063550fdc3d146100cf57806355a373d6146100d95780637ff9b59614610130575b61005d61015b565b005b61008b6004803603602081101561007557600080fd5b8101908080359060200190929190505050610445565b005b34801561009957600080fd5b506100a2610736565b005b3480156100b057600080fd5b506100b961098f565b6040518082815260200191505060405180910390f35b6100d761015b565b005b3480156100e557600080fd5b506100ee610995565b604051808273ffffffffffffffffffffffffffffffffffffffff1673ffffffffffffffffffffffffffffffffffffffff16815260200191505060405180910390f35b34801561013c57600080fd5b506101456109bb565b6040518082815260200191505060405180910390f35b6000610169346002546109c1565b905080600160009054906101000a900473ffffffffffffffffffffffffffffffffffffffff1673ffffffffffffffffffffffffffffffffffffffff166370a082316000809054906101000a900473ffffffffffffffffffffffffffffffffffffffff166040518263ffffffff1660e01b8152600401808273ffffffffffffffffffffffffffffffffffffffff1673ffffffffffffffffffffffffffffffffffffffff16815260200191505060206040518083038186803b15801561022c57600080fd5b505afa158015610240573d6000803e3d6000fd5b505050506040513d602081101561025657600080fd5b8101908080519060200190929190505050101561027257600080fd5b600160009054906101000a900473ffffffffffffffffffffffffffffffffffffffff1673ffffffffffffffffffffffffffffffffffffffff1663a9059cbb33836040518363ffffffff1660e01b8152600401808373ffffffffffffffffffffffffffffffffffffffff1673ffffffffffffffffffffffffffffffffffffffff16815260200182815260200192505050602060405180830381600087803b15801561031b57600080fd5b505af115801561032f573d6000803e3d6000fd5b505050506040513d602081101561034557600080fd5b810190808051906020019092919050505061035f57600080fd5b806003600082825401925050819055506000809054906101000a900473ffffffffffffffffffffffffffffffffffffffff1673ffffffffffffffffffffffffffffffffffffffff166108fc349081150290604051600060405180830381858888f193505050501580156103d6573d6000803e3d6000fd5b507f5e5e995ce3133561afceaa51a9a154d5db228cd7525d34df5185582c18d3df093382604051808373ffffffffffffffffffffffffffffffffffffffff1673ffffffffffffffffffffffffffffffffffffffff1681526020018281526020019250505060405180910390a150565b61045181600254610a0b565b341461045c57600080fd5b80600160009054906101000a900473ffffffffffffffffffffffffffffffffffffffff1673ffffffffffffffffffffffffffffffffffffffff166370a082316000809054906101000a900473ffffffffffffffffffffffffffffffffffffffff166040518263ffffffff1660e01b8152600401808273ffffffffffffffffffffffffffffffffffffffff1673ffffffffffffffffffffffffffffffffffffffff16815260200191505060206040518083038186803b15801561051d57600080fd5b505afa158015610531573d6000803e3d6000fd5b505050506040513d602081101561054757600080fd5b8101908080519060200190929190505050101561056357600080fd5b600160009054906101000a900473ffffffffffffffffffffffffffffffffffffffff1673ffffffffffffffffffffffffffffffffffffffff1663a9059cbb33836040518363ffffffff1660e01b8152600401808373ffffffffffffffffffffffffffffffffffffffff1673ffffffffffffffffffffffffffffffffffffffff16815260200182815260200192505050602060405180830381600087803b15801561060c57600080fd5b505af1158015610620573d6000803e3d6000fd5b505050506040513d602081101561063657600080fd5b810190808051906020019092919050505061065057600080fd5b806003600082825401925050819055506000809054906101000a900473ffffffffffffffffffffffffffffffffffffffff1673ffffffffffffffffffffffffffffffffffffffff166108fc349081150290604051600060405180830381858888f193505050501580156106c7573d6000803e3d6000fd5b507f5e5e995ce3133561afceaa51a9a154d5db228cd7525d34df5185582c18d3df093382604051808373ffffffffffffffffffffffffffffffffffffffff1673ffffffffffffffffffffffffffffffffffffffff1681526020018281526020019250505060405180910390a150565b6000809054906101000a900473ffffffffffffffffffffffffffffffffffffffff1673ffffffffffffffffffffffffffffffffffffffff163373ffffffffffffffffffffffffffffffffffffffff161461078f57600080fd5b600160009054906101000a900473ffffffffffffffffffffffffffffffffffffffff1673ffffffffffffffffffffffffffffffffffffffff1663a9059cbb6000809054906101000a900473ffffffffffffffffffffffffffffffffffffffff16600160009054906101000a900473ffffffffffffffffffffffffffffffffffffffff1673ffffffffffffffffffffffffffffffffffffffff166370a08231306040518263ffffffff1660e01b8152600401808273ffffffffffffffffffffffffffffffffffffffff1673ffffffffffffffffffffffffffffffffffffffff16815260200191505060206040518083038186803b15801561088e57600080fd5b505afa1580156108a2573d6000803e3d6000fd5b505050506040513d60208110156108b857600080fd5b81019080805190602001909291905050506040518363ffffffff1660e01b8152600401808373ffffffffffffffffffffffffffffffffffffffff1673ffffffffffffffffffffffffffffffffffffffff16815260200182815260200192505050602060405180830381600087803b15801561093257600080fd5b505af1158015610946573d6000803e3d6000fd5b505050506040513d602081101561095c57600080fd5b810190808051906020019092919050505061097657600080fd5b3373ffffffffffffffffffffffffffffffffffffffff16ff5b60035481565b600160009054906101000a900473ffffffffffffffffffffffffffffffffffffffff1681565b60025481565b6000610a0383836040518060400160405280601a81526020017f536166654d6174683a206469766973696f6e206279207a65726f000000000000815250610a37565b905092915050565b600080821480610a285750828283850292508281610a2557fe5b04145b610a3157600080fd5b92915050565b60008083118290610ae3576040517f08c379a00000000000000000000000000000000000000000000000000000000081526004018080602001828103825283818151815260200191508051906020019080838360005b83811015610aa8578082015181840152602081019050610a8d565b50505050905090810190601f168015610ad55780820380516001836020036101000a031916815260200191505b509250505060405180910390fd5b506000838581610aef57fe5b04905080915050939250505056fea265627a7a723158203c5bb8ccadf6cc278bf25ec1ac9b86fc139d02ee1ba3e55a1b9235831f943b2a64736f6c634300050c0032",
  "source": "pragma solidity ^0.5.12;\n\nimport \"./DemystifyToken.sol\";\n\ncontract DemystifyTokenSale {\n\n\n    address payable admin;\n    DemystifyToken public tokenContract;\n    uint256 public tokenPrice;\n    uint256 public tokensSold;\n\n    event Sell(\n        address _buyer,\n        uint256 _amount\n    );\n\n\n    constructor (DemystifyToken _tokenContract, uint256 _tokenPrice) public {\n        admin = msg.sender;\n        tokenContract = _tokenContract;\n        tokenPrice = _tokenPrice;\n    }\n\n    function div(uint256 a, uint256 b) internal pure returns (uint256) {\n        return div(a, b, \"SafeMath: division by zero\");\n    }\n    function div(uint256 a, uint256 b, string memory errorMessage) internal pure returns (uint256) {\n        // Solidity only automatically asserts when dividing by 0\n        require(b > 0, errorMessage);\n        uint256 c = a / b;\n        // assert(a == b * c + a % b); // There is no case in which this doesn't hold\n\n        return c;\n    }\n\n\n    function multiply(uint x, uint y) internal pure returns (uint z) {\n        require(y == 0 || (z = x * y) / y == x);\n    }\n\n    function() external payable {\n        buyTokensWithoutValue();\n    }\n\n    function buyTokensWithoutValue() public payable {\n        uint _value = div(msg.value, tokenPrice);\n        require(tokenContract.balanceOf(admin) >= _value);\n        require(tokenContract.transfer(msg.sender, _value));\n\n        tokensSold += _value;\n        admin.transfer(msg.value);\n        emit Sell(msg.sender, _value);\n    }\n\n    function buyTokens(uint256 _numberOfTokens) public payable {\n        require(msg.value == multiply(_numberOfTokens, tokenPrice));\n        require(tokenContract.balanceOf(admin) >= _numberOfTokens);\n        require(tokenContract.transfer(msg.sender, _numberOfTokens));\n\n        tokensSold += _numberOfTokens;\n        admin.transfer(msg.value);\n        emit Sell(msg.sender, _numberOfTokens);\n    }\n\n\n    function endSale() public {\n        require(msg.sender == admin);\n        require(tokenContract.transfer(admin, tokenContract.balanceOf(address(this))));\n        selfdestruct(msg.sender);\n\n\n    }\n\n\n}",
  "sourcePath": "/Users/aa/IdeaProjects/DemystifyToken/contracts/DemystifyTokenSale.sol",
  "compiler": {
    "name": "solc",
    "version": "0.5.12+commit.7709ece9.Emscripten.clang"
  },
  "schemaVersion": "3.0.20",
  "updatedAt": "2020-01-12T09:29:41.848Z",
  "devdoc": {
    "methods": {}
  },
  "userdoc": {
    "methods": {}
  }
}